{
  "address": "0xe7f1725E7734CE288F8367e1Bb143E90bb3F0512",
  "abi": [
    {
      "inputs": [
        {
          "internalType": "address",
          "name": "priceFeedAddress",
          "type": "address"
        }
      ],
      "stateMutability": "nonpayable",
      "type": "constructor"
    },
    {
      "inputs": [],
      "name": "FundMe__NotOwner",
      "type": "error"
    },
    {
      "stateMutability": "payable",
      "type": "fallback"
    },
    {
      "inputs": [],
      "name": "MINIMUM_USD",
      "outputs": [
        {
          "internalType": "uint256",
          "name": "",
          "type": "uint256"
        }
      ],
      "stateMutability": "view",
      "type": "function"
    },
    {
      "inputs": [],
      "name": "cheaperWithdraw",
      "outputs": [],
      "stateMutability": "nonpayable",
      "type": "function"
    },
    {
      "inputs": [],
      "name": "fund",
      "outputs": [],
      "stateMutability": "payable",
      "type": "function"
    },
    {
      "inputs": [
        {
          "internalType": "address",
          "name": "funder",
          "type": "address"
        }
      ],
      "name": "getAddressToAmtFunded",
      "outputs": [
        {
          "internalType": "uint256",
          "name": "",
          "type": "uint256"
        }
      ],
      "stateMutability": "view",
      "type": "function"
    },
    {
      "inputs": [
        {
          "internalType": "uint256",
          "name": "index",
          "type": "uint256"
        }
      ],
      "name": "getFunder",
      "outputs": [
        {
          "internalType": "address",
          "name": "",
          "type": "address"
        }
      ],
      "stateMutability": "view",
      "type": "function"
    },
    {
      "inputs": [],
      "name": "getOwner",
      "outputs": [
        {
          "internalType": "address",
          "name": "",
          "type": "address"
        }
      ],
      "stateMutability": "view",
      "type": "function"
    },
    {
      "inputs": [],
      "name": "getPriceFeed",
      "outputs": [
        {
          "internalType": "contract AggregatorV3Interface",
          "name": "",
          "type": "address"
        }
      ],
      "stateMutability": "view",
      "type": "function"
    },
    {
      "inputs": [],
      "name": "withdraw",
      "outputs": [],
      "stateMutability": "nonpayable",
      "type": "function"
    },
    {
      "stateMutability": "payable",
      "type": "receive"
    }
  ],
  "transactionHash": "0xc8085ae47c03d93ef2665e505f9e44f9902fa20b9820cb8a7973d808a39a4610",
  "args": [
    "0x5FbDB2315678afecb367f032d93F642f64180aa3"
  ],
  "numDeployments": 1,
  "solcInputHash": "abf8eb809b9837f8f81ddb6ebb930d0c",
  "bytecode": "0x60a06040523480156200001157600080fd5b506040516200135138038062001351833981810160405281019062000037919062000120565b3373ffffffffffffffffffffffffffffffffffffffff1660808173ffffffffffffffffffffffffffffffffffffffff1660601b8152505080600260006101000a81548173ffffffffffffffffffffffffffffffffffffffff021916908373ffffffffffffffffffffffffffffffffffffffff1602179055505062000152565b600080fd5b600073ffffffffffffffffffffffffffffffffffffffff82169050919050565b6000620000e882620000bb565b9050919050565b620000fa81620000db565b81146200010657600080fd5b50565b6000815190506200011a81620000ef565b92915050565b600060208284031215620001395762000138620000b6565b5b6000620001498482850162000109565b91505092915050565b60805160601c6111c46200018d600039600081816103070152818161049a01528181610575015281816105c501526107bb01526111c46000f3fe60806040526004361061007f5760003560e01c8063b60d42881161004e578063b60d428814610130578063be2693f01461013a578063d7b4750c14610151578063fbaa15981461018e5761008e565b80633ccfd60b146100985780636b69a592146100af578063893d20e8146100da5780639e87a5cd146101055761008e565b3661008e5761008c6101cb565b005b6100966101cb565b005b3480156100a457600080fd5b506100ad610305565b005b3480156100bb57600080fd5b506100c4610565565b6040516100d19190610ab2565b60405180910390f35b3480156100e657600080fd5b506100ef610571565b6040516100fc9190610b0e565b60405180910390f35b34801561011157600080fd5b5061011a610599565b6040516101279190610b88565b60405180910390f35b6101386101cb565b005b34801561014657600080fd5b5061014f6105c3565b005b34801561015d57600080fd5b5061017860048036038101906101739190610bd4565b610887565b6040516101859190610b0e565b60405180910390f35b34801561019a57600080fd5b506101b560048036038101906101b09190610c2d565b6108ce565b6040516101c29190610ab2565b60405180910390f35b674563918244f40000610209600260009054906101000a900473ffffffffffffffffffffffffffffffffffffffff163461091790919063ffffffff16565b101561024a576040517f08c379a000000000000000000000000000000000000000000000000000000000815260040161024190610cb7565b60405180910390fd5b34600160003373ffffffffffffffffffffffffffffffffffffffff1673ffffffffffffffffffffffffffffffffffffffff16815260200190815260200160002060008282546102999190610d06565b925050819055506000339080600181540180825580915050600190039060005260206000200160009091909190916101000a81548173ffffffffffffffffffffffffffffffffffffffff021916908373ffffffffffffffffffffffffffffffffffffffff160217905550565b7f000000000000000000000000000000000000000000000000000000000000000073ffffffffffffffffffffffffffffffffffffffff163373ffffffffffffffffffffffffffffffffffffffff161461038a576040517f579610db00000000000000000000000000000000000000000000000000000000815260040160405180910390fd5b60005b6000805490508110156104355760008082815481106103af576103ae610d5c565b5b9060005260206000200160009054906101000a900473ffffffffffffffffffffffffffffffffffffffff1690506000600160008373ffffffffffffffffffffffffffffffffffffffff1673ffffffffffffffffffffffffffffffffffffffff1681526020019081526020016000208190555050808061042d90610d8b565b91505061038d565b50600067ffffffffffffffff81111561045157610450610dd4565b5b60405190808252806020026020018201604052801561047f5781602001602082028036833780820191505090505b50600090805190602001906104959291906109f2565b5060007f000000000000000000000000000000000000000000000000000000000000000073ffffffffffffffffffffffffffffffffffffffff16476040516104dc90610e34565b60006040518083038185875af1925050503d8060008114610519576040519150601f19603f3d011682016040523d82523d6000602084013e61051e565b606091505b5050905080610562576040517f08c379a000000000000000000000000000000000000000000000000000000000815260040161055990610e95565b60405180910390fd5b50565b674563918244f4000081565b60007f0000000000000000000000000000000000000000000000000000000000000000905090565b6000600260009054906101000a900473ffffffffffffffffffffffffffffffffffffffff16905090565b7f000000000000000000000000000000000000000000000000000000000000000073ffffffffffffffffffffffffffffffffffffffff163373ffffffffffffffffffffffffffffffffffffffff1614610648576040517f579610db00000000000000000000000000000000000000000000000000000000815260040160405180910390fd5b6000808054806020026020016040519081016040528092919081815260200182805480156106cb57602002820191906000526020600020905b8160009054906101000a900473ffffffffffffffffffffffffffffffffffffffff1673ffffffffffffffffffffffffffffffffffffffff1681526020019060010190808311610681575b5050505050905060005b81518110156107565760008282815181106106f3576106f2610d5c565b5b602002602001015190506000600160008373ffffffffffffffffffffffffffffffffffffffff1673ffffffffffffffffffffffffffffffffffffffff1681526020019081526020016000208190555050808061074e90610d8b565b9150506106d5565b50600067ffffffffffffffff81111561077257610771610dd4565b5b6040519080825280602002602001820160405280156107a05781602001602082028036833780820191505090505b50600090805190602001906107b69291906109f2565b5060007f000000000000000000000000000000000000000000000000000000000000000073ffffffffffffffffffffffffffffffffffffffff16476040516107fd90610e34565b60006040518083038185875af1925050503d806000811461083a576040519150601f19603f3d011682016040523d82523d6000602084013e61083f565b606091505b5050905080610883576040517f08c379a000000000000000000000000000000000000000000000000000000000815260040161087a90610e95565b60405180910390fd5b5050565b600080828154811061089c5761089b610d5c565b5b9060005260206000200160009054906101000a900473ffffffffffffffffffffffffffffffffffffffff169050919050565b6000600160008373ffffffffffffffffffffffffffffffffffffffff1673ffffffffffffffffffffffffffffffffffffffff168152602001908152602001600020549050919050565b60008061092383610952565b90506000662386f26fc10000828661093b9190610eb5565b6109459190610f3e565b9050809250505092915050565b6000808273ffffffffffffffffffffffffffffffffffffffff1663feaf968c6040518163ffffffff1660e01b815260040160a06040518083038186803b15801561099b57600080fd5b505afa1580156109af573d6000803e3d6000fd5b505050506040513d601f19601f820116820180604052508101906109d39190610ffc565b5050509150506402540be400816109ea9190611077565b915050919050565b828054828255906000526020600020908101928215610a6b579160200282015b82811115610a6a5782518260006101000a81548173ffffffffffffffffffffffffffffffffffffffff021916908373ffffffffffffffffffffffffffffffffffffffff16021790555091602001919060010190610a12565b5b509050610a789190610a7c565b5090565b5b80821115610a95576000816000905550600101610a7d565b5090565b6000819050919050565b610aac81610a99565b82525050565b6000602082019050610ac76000830184610aa3565b92915050565b600073ffffffffffffffffffffffffffffffffffffffff82169050919050565b6000610af882610acd565b9050919050565b610b0881610aed565b82525050565b6000602082019050610b236000830184610aff565b92915050565b6000819050919050565b6000610b4e610b49610b4484610acd565b610b29565b610acd565b9050919050565b6000610b6082610b33565b9050919050565b6000610b7282610b55565b9050919050565b610b8281610b67565b82525050565b6000602082019050610b9d6000830184610b79565b92915050565b600080fd5b610bb181610a99565b8114610bbc57600080fd5b50565b600081359050610bce81610ba8565b92915050565b600060208284031215610bea57610be9610ba3565b5b6000610bf884828501610bbf565b91505092915050565b610c0a81610aed565b8114610c1557600080fd5b50565b600081359050610c2781610c01565b92915050565b600060208284031215610c4357610c42610ba3565b5b6000610c5184828501610c18565b91505092915050565b600082825260208201905092915050565b7f6d7573742062652067726561746572207468616e20353020646f6c6c61727300600082015250565b6000610ca1601f83610c5a565b9150610cac82610c6b565b602082019050919050565b60006020820190508181036000830152610cd081610c94565b9050919050565b7f4e487b7100000000000000000000000000000000000000000000000000000000600052601160045260246000fd5b6000610d1182610a99565b9150610d1c83610a99565b9250827fffffffffffffffffffffffffffffffffffffffffffffffffffffffffffffffff03821115610d5157610d50610cd7565b5b828201905092915050565b7f4e487b7100000000000000000000000000000000000000000000000000000000600052603260045260246000fd5b6000610d9682610a99565b91507fffffffffffffffffffffffffffffffffffffffffffffffffffffffffffffffff821415610dc957610dc8610cd7565b5b600182019050919050565b7f4e487b7100000000000000000000000000000000000000000000000000000000600052604160045260246000fd5b600081905092915050565b50565b6000610e1e600083610e03565b9150610e2982610e0e565b600082019050919050565b6000610e3f82610e11565b9150819050919050565b7f5472616e73616374696f6e206661696c65640000000000000000000000000000600082015250565b6000610e7f601283610c5a565b9150610e8a82610e49565b602082019050919050565b60006020820190508181036000830152610eae81610e72565b9050919050565b6000610ec082610a99565b9150610ecb83610a99565b9250817fffffffffffffffffffffffffffffffffffffffffffffffffffffffffffffffff0483118215151615610f0457610f03610cd7565b5b828202905092915050565b7f4e487b7100000000000000000000000000000000000000000000000000000000600052601260045260246000fd5b6000610f4982610a99565b9150610f5483610a99565b925082610f6457610f63610f0f565b5b828204905092915050565b600069ffffffffffffffffffff82169050919050565b610f8e81610f6f565b8114610f9957600080fd5b50565b600081519050610fab81610f85565b92915050565b6000819050919050565b610fc481610fb1565b8114610fcf57600080fd5b50565b600081519050610fe181610fbb565b92915050565b600081519050610ff681610ba8565b92915050565b600080600080600060a0868803121561101857611017610ba3565b5b600061102688828901610f9c565b955050602061103788828901610fd2565b945050604061104888828901610fe7565b935050606061105988828901610fe7565b925050608061106a88828901610f9c565b9150509295509295909350565b600061108282610fb1565b915061108d83610fb1565b9250827f7fffffffffffffffffffffffffffffffffffffffffffffffffffffffffffffff04821160008413600084131616156110cc576110cb610cd7565b5b817f8000000000000000000000000000000000000000000000000000000000000000058312600084126000841316161561110957611108610cd7565b5b827f8000000000000000000000000000000000000000000000000000000000000000058212600084136000841216161561114657611145610cd7565b5b827f7fffffffffffffffffffffffffffffffffffffffffffffffffffffffffffffff058212600084126000841216161561118357611182610cd7565b5b82820290509291505056fea26469706673582212207e1d2c2dde58ea6a856fccd62e66124a56096ab3e489848d3f16150212b3a1f964736f6c63430008080033",
  "devdoc": {
    "author": "Vignesh s",
    "details": "This implements price feeds as the library",
    "kind": "dev",
    "methods": {
      "fund()": {
        "details": "checks if the amount sent is greater than set Minimum amout and keeps tract of the funder addresses"
      },
      "withdraw()": {
        "details": "checks if the amount sent is greater than set Minimum amout and keeps tract of the funder addresses"
      }
    },
    "title": "A contract for crowd funding",
    "version": 1
  },
  "userdoc": {
    "kind": "user",
    "methods": {
      "fund()": {
        "notice": "This function funds this contract"
      },
      "withdraw()": {
        "notice": "This function withdraws the funds in the contract"
      }
    },
    "notice": "This is a tutorial contract to understand funding using contracts",
    "version": 1
  },
  "storageLayout": {
    "storage": [
      {
        "astId": 124,
        "contract": "contracts/FundMe.sol:FundMe",
        "label": "s_funders",
        "offset": 0,
        "slot": "0",
        "type": "t_array(t_address)dyn_storage"
      },
      {
        "astId": 128,
        "contract": "contracts/FundMe.sol:FundMe",
        "label": "s_addressToAmtFunded",
        "offset": 0,
        "slot": "1",
        "type": "t_mapping(t_address,t_uint256)"
      },
      {
        "astId": 133,
        "contract": "contracts/FundMe.sol:FundMe",
        "label": "s_priceFeed",
        "offset": 0,
        "slot": "2",
        "type": "t_contract(AggregatorV3Interface)45"
      }
    ],
    "types": {
      "t_address": {
        "encoding": "inplace",
        "label": "address",
        "numberOfBytes": "20"
      },
      "t_array(t_address)dyn_storage": {
        "base": "t_address",
        "encoding": "dynamic_array",
        "label": "address[]",
        "numberOfBytes": "32"
      },
      "t_contract(AggregatorV3Interface)45": {
        "encoding": "inplace",
        "label": "contract AggregatorV3Interface",
        "numberOfBytes": "20"
      },
      "t_mapping(t_address,t_uint256)": {
        "encoding": "mapping",
        "key": "t_address",
        "label": "mapping(address => uint256)",
        "numberOfBytes": "32",
        "value": "t_uint256"
      },
      "t_uint256": {
        "encoding": "inplace",
        "label": "uint256",
        "numberOfBytes": "32"
      }
    }
  }
}